:100000000C9435000C945D000C945D000C945D0024
:100010000C945D000C945D000C945D000C945D00EC
:100020000C945D000C945D000C945D000C945D00DC
:100030000C945D000C945D000C945D000C945D00CC
:100040000C94AA000C945D000C94B9020C94EB0281
:100050000C945D000C945D000C945D000C945D00AC
:100060000C945D000C945D001B0311241FBECFEFA8
:10007000D8E0DEBFCDBF11E0A0E0B1E0EEE5F9E0F1
:1000800002C005900D92A634B107D9F721E0A6E48D
:10009000B1E001C01D92AE3EB207E1F710E0CAE642
:1000A000D0E004C02297FE010E94A904C836D107FF
:1000B000C9F70E9475040C94AD040C940000A89537
:1000C00088E10FB6F89480936000109260000FBE34
:1000D00026E040E855E260E070E081E591E00E94B2
:1000E0005D0260E071E081E591E00E94A70368E0B5
:1000F00071E081E591E00E94A70368E873E180E088
:1001000090E00E94170129E288E190E00FB6F89490
:10011000A895809360000FBE2093600065E171E0B8
:1001200081E591E00C94A70368EE73E080E090E035
:100130000E94170160914601709147016F5F7F4FE8
:1001400070934701609346014AE050E081E591E0F9
:100150000C945C041F920F920FB60F9211242F93F0
:100160003F938F939F93AF93BF9380914901909159
:100170004A01A0914B01B0914C013091480126E019
:10018000230F2D3720F40296A11DB11D05C029E8CB
:10019000230F0396A11DB11D2093480180934901AF
:1001A00090934A01A0934B01B0934C0180914D0173
:1001B00090914E01A0914F01B09150010196A11D67
:1001C000B11D80934D0190934E01A0934F01B093C8
:1001D0005001BF91AF919F918F913F912F910F90BF
:1001E0000FBE0F901F9018953FB7F89480914D0166
:1001F00090914E01A0914F01B091500126B5A89B5E
:1002000005C02F3F19F00196A11DB11D3FBF662704
:10021000782F892F9A2F620F711D811D911D43E048
:10022000660F771F881F991F4A95D1F70895CF92BF
:10023000DF92EF92FF92CF93DF936B017C010E94DC
:10024000F400EB01C114D104E104F10489F00E942F
:1002500084040E94F4006C1B7D0B683E734090F395
:1002600081E0C81AD108E108F108C851DC4FEACF93
:10027000DF91CF91FF90EF90DF90CF900895789429
:1002800084B5826084BD84B5816084BD85B582609B
:1002900085BD85B5816085BDEEE6F0E08081816039
:1002A0008083E1E8F0E01082808182608083808139
:1002B00081608083E0E8F0E0808181608083E1EB11
:1002C000F0E0808184608083E0EBF0E080818160F9
:1002D0008083EAE7F0E080818460808380818260AF
:1002E000808380818E7F808380818068808310926C
:1002F000C1000895FC01818D228D90E0805C9F4FAC
:10030000821B91098F7399270895FC01918D828D2D
:10031000981731F0828DE80FF11D858D90E00895DA
:100320008FEF9FEF0895FC01918D828D981761F0FA
:10033000828DDF01A80FB11D5D968C91928D9F5F1C
:100340009F73928F90E008958FEF9FEF089581E162
:1003500093E0892B49F080E090E0892B29F00E94FE
:10036000110381110C9400000895FC01848DDF01BC
:10037000A80FB11DA35ABF4F2C91848D90E0019618
:100380008F739927848FA689B7892C93A089B18907
:100390008C9180648C93938D848D981306C0028811
:1003A000F389E02D80818F7D80830895CF93DF9343
:1003B000EC01888D8823C9F0EA89FB89808185FD5D
:1003C00005C0A889B9898C9186FD0FC00FB607FCBE
:1003D000F5CF808185FFF2CFA889B9898C9185FFFF
:1003E000EDCFCE010E94B501E7CFDF91CF91089507
:1003F000CF92DF92FF920F931F93CF93DF931F92C1
:10040000CDB7DEB76C0181E0D60158968C93589732
:100410005B969C915B975C968C915C97981307C058
:100420005096ED91FC915197808185FD2EC0F6018B
:10043000038D10E00F5F1F4F0F731127F02EF60191
:10044000848DF81211C00FB607FCF9CFD601509673
:10045000ED91FC915197808185FFF1CFC6016983B1
:100460000E94B5016981EBCF838DE80FF11DE35A3E
:10047000FF4F6083D6015B960C935B975296ED918C
:10048000FC915397808180620CC0D6015696ED9105
:10049000FC91579760835096ED91FC915197808124
:1004A0008064808381E090E00F90DF91CF911F9175
:1004B0000F91FF90DF90CF900895BF92CF92DF927F
:1004C000EF92FF92CF93DF93EC016A017B01B22E92
:1004D00060E874E88EE190E0A70196010E9485042F
:1004E000215031094109510956954795379527956E
:1004F000E889F98982E08083211580E1380798F046
:10050000E889F989108260E472E48FE090E0A70145
:1005100096010E94850421503109410951095695DF
:10052000479537952795EC85FD853083EE85FF85CA
:100530002083188EEC89FD89B082EA89FB8980814D
:1005400080618083EA89FB89808188608083EA8971
:10055000FB89808180688083EA89FB8980818F7D27
:100560008083DF91CF91FF90EF90DF90CF90BF908D
:1005700008951F920F920FB60F9211242F938F930D
:100580009F93EF93FF93E0916101F091620180816D
:10059000E0916701F091680182FD12C09081809125
:1005A0006A018F5F8F7320916B01821751F0E09188
:1005B0006A01F0E0EF5AFE4F958F80936A0101C007
:1005C0008081FF91EF919F918F912F910F900FBE9E
:1005D0000F901F9018951F920F920FB60F92112433
:1005E0002F933F934F935F936F937F938F939F933B
:1005F000AF93BF93EF93FF9381E591E00E94B50124
:10060000FF91EF91BF91AF919F918F917F916F91EA
:100610005F914F913F912F910F900FBE0F901F90C0
:10062000189581E591E00E947A0121E0892B09F477
:1006300020E0822F0895109254011092530188EE09
:1006400093E0A0E0B0E08093550190935601A09311
:100650005701B09358018BE291E09093520180933F
:10066000510185EC90E090935E0180935D0184ECF4
:1006700090E09093600180935F0180EC90E0909314
:1006800062018093610181EC90E09093640180931A
:10069000630182EC90E0909366018093650186ECA3
:1006A00090E0909368018093670110926A01109224
:1006B0006B0110926C0110926D010895CF92DF9240
:1006C000EF92FF920F931F93CF93DF937C016A0108
:1006D000EB0100E010E00C151D0571F06991D701E8
:1006E000ED91FC910190F081E02DC7010995892BD6
:1006F00019F00F5F1F4FEFCFC801DF91CF911F910E
:100700000F91FF90EF90DF90CF90089561157105E4
:1007100081F0DB010D900020E9F7AD014150510956
:10072000461B570BDC01ED91FC910280F381E02D1B
:10073000099480E090E00895DC01ED91FC91019036
:10074000F081E02D099467E371E00C9486030F9328
:100750001F93CF93DF93EC010E9486038C01CE019F
:100760000E94A303800F911FDF91CF911F910F91E2
:1007700008958F929F92AF92BF92CF92DF92EF92A5
:10078000FF920F931F93CF93DF93CDB7DEB7A1975F
:100790000FB6F894DEBF0FBECDBF7C01C42EE52F8F
:1007A000CB01D22E19A221E02D1510F02AE0D22E75
:1007B0008E010F5D1F4F8D2C912CA12CB12C6C2D17
:1007C0007E2FA50194010E9485048C2DD29E801954
:1007D0001124015011098A3014F4805D01C0895C34
:1007E000F8018083211531054105510521F0C22E04
:1007F000E32FCA01E4CFB801C7010E948603A19686
:100800000FB6F894DEBF0FBECDBFDF91CF911F9121
:100810000F91FF90EF90DF90CF90BF90AF909F909F
:100820008F900895CF92DF92EF92FF920F931F93D4
:10083000CF93DF93EC016A017B012115310579F437
:10084000E881F9810190F081E02D642FDF91CF9153
:100850001F910F91FF90EF90DF90CF9009942A3075
:100860003105E9F477FF1AC06DE20E949C038C0108
:1008700044275527BA014C195D096E097F092AE002
:10088000CE010E94B903800F911FDF91CF911F917C
:100890000F91FF90EF90DF90CF9008952AE0B7017D
:1008A000A601CE01DF91CF911F910F91FF90EF90A4
:1008B000DF90CF900C94B9030F931F93CF93DF93E6
:1008C000EC019A01AB01662757FD6095762F0E94D7
:1008D00012048C01CE010E94A303800F911FDF91AF
:1008E000CF911F910F91089508950E943F010E949A
:1008F00074040E945F00C7EAD1E00E949400209730
:10090000E1F30E94A701F9CF0895A1E21A2EAA1BD4
:10091000BB1BFD010DC0AA1FBB1FEE1FFF1FA217AF
:10092000B307E407F50720F0A21BB30BE40BF50BAC
:10093000661F771F881F991F1A9469F76095709535
:10094000809590959B01AC01BD01CF010895EE0FFC
:0E095000FF1F0590F491E02D0994F894FFCF5D
:10095E0053657475702E2E0057616974203520739F
:10096E0065632E2E005761746368646F6720656E31
:10097E0061626C65642E0000000000F8015E037A6F
:10098E000193018501D6010D0A006E616E00696E3C
:06099E0066006F766600A2
:00000001FF
