:100000000C9465000C948D000C948D000C948D0064
:100010000C948D000C948D000C9481050C948D0033
:100020000C948D000C948D000C948D000C948D001C
:100030000C948D000C948D000C948D000C948D000C
:100040000C94E8060C948D000C948D000C948D009B
:100050000C948D000C948D000C948D000C948D00EC
:100060000C948D000C948D00000102030405000027
:100070000008000201000003040700000000000067
:100080000000010204081020408001020408102032
:1000900001020408102004040404040404040202FD
:1000A0000202020203030303030300000000230013
:1000B0002600290000000000250028002B00000079
:1000C0000000240027002A00E70111241FBECFEF03
:1000D000D8E0DEBFCDBF11E0A0E0B1E0E2EDF3E19A
:1000E00002C005900D92A230B107D9F721E0A2E03D
:1000F000B1E001C01D92AE32B207E1F710E0CAECE8
:10010000D0E004C02297FE010E94E309C83CD10759
:10011000C9F70E94AF080C94E7090C9400000F93F4
:100120001F9362E370E080E090E00E94610783E14A
:1001300091E00E94B30464E670E080E090E00E94E9
:10014000610783E191E00E94900362E370E080E048
:1001500090E00E9461076DE683E191E00E94410317
:100160004FE06FE083E191E00E94350560E070E0D0
:1001700083E191E00E94710461E083E191E00E94DB
:10018000580462E070E083E191E00E94190583E188
:1001900091E00E94350461E083E191E00E94500407
:1001A00083E191E00E94480301E01FEE2EEB3DEA5F
:1001B0004EED50E060E070E083E191E00E94EA03E0
:1001C00062E370E080E090E00E94610783E191E0EB
:1001D0000E947E0362E370E080E090E01F910F9147
:1001E0000C94610714BE88E10FB6F8948093600008
:1001F000109260000FBE60ED77E080E090E00E941A
:1002000061070E948F0083E00C94CD070F931F932A
:10021000CF93DF931F92CDB7DEB78C01462F62E3F9
:1002200070E080E090E049830E94610783E191E003
:100230000E94900362E370E080E090E00E9461071A
:1002400083E191E00E9448034981B80183E191E094
:100250000E94E70362E370E080E090E00E946107A3
:1002600083E191E00E947E0362E370E080E090E031
:100270000F90DF91CF911F910F910C9461074F92D6
:100280005F926F927F928F929F92AF92BF92CF9226
:10029000DF92EF92FF920F931F93CF93DF93CDB72F
:1002A000DEB72E970FB6F894DEBF0FBECDBF40E08D
:1002B00050E062E082E091E00E94B00664E170E00C
:1002C00080E090E00E94610782E091E00E94D00609
:1002D0000E94BF086B017C015B0182E091E00E94FB
:1002E000DC060E94BF082B013C014B0164E170E079
:1002F00080E090E00E9461078EE00E94D007BC0180
:100300008E010F5F1F4F8EE0F80111928A95E9F779
:10031000882777FD8095982F0E94F20828E633EB16
:100320004AEA5EE30E9456090E94C4087A83698300
:10033000F4E64F0E511C5C824B8284E6C80ED11C41
:10034000DE82CD82892811F4AB2821F06EE0C8014D
:100350000E9406012E960FB6F894DEBF0FBECDBFE9
:10036000DF91CF911F910F91FF90EF90DF90CF9091
:10037000BF90AF909F908F907F906F905F904F90C5
:100380000895CF9329E288E190E00FB6F894A895FC
:10039000809360000FBE209360000E943F01A895EB
:1003A00088E10FB6F89480936000109260000FBE51
:1003B000C8E020E030E040E050E069E070E084E236
:1003C00091E00E943E05C150A1F7CF9108954AE007
:1003D00069E083E191E00C943603CF93CFB7F894B2
:1003E00080912301811127C0E0EAF0E08491ECE8DC
:1003F000F0E09491E82FF0E0EE0FFF1FE254FF4F82
:10040000A591B4918C91892321F461E08AE00E9446
:100410004F0861E08AE00E9416088CB580618CBDAF
:100420008CB580648CBD61E08DE00E94160861E0AF
:100430008BE00E941608809123018F5F8093230137
:10044000CFBFCF9108958EBD00000DB407FEFDCF44
:100450008EB508952CB52F7D2CBD2CB5237F2CBDDA
:100460002CB52C7F2CBD2DB521602DBDFC018181CB
:100470000E944F0885E090E00C948907FC01808180
:10048000918189130C944F08089560E00C942A021E
:1004900061E00C942A02EF92FF921F93CF93DF93B7
:1004A0001F92CDB7DEB77C0169830E944502698146
:1004B000862F8F710E9423028FEF0E942302182F34
:1004C000C7010E944802812F0F90DF91CF911F91A9
:1004D000FF90EF900895CF92DF92EF92FF920F93EB
:1004E0001F93CF93DF9300D01F92CDB7DEB78C015F
:1004F000F22E4A835B8369830E9445026981862FBD
:100500008F7180620E942302E82E4A81C42E5B8193
:10051000D52EF40EFC1431F0F60181916F010E948A
:100520002302F8CFC8010E9448028E2D0F900F9031
:100530000F90DF91CF911F910F91FF90EF90DF907F
:10054000CF900895EF92FF921F93CF93DF9300D047
:10055000CDB7DEB77C014A8369830E944502698179
:10056000862F8F7180620E942302182F4A81842F68
:100570000E942302C7010E944802812F0F900F9012
:10058000DF91CF911F91FF90EF900895AF92BF92AE
:10059000DF92EF92FF920F931F93CF93DF9300D0E0
:1005A0001F92CDB7DEB78C01FC01E380F42EE41678
:1005B00008F4FE2CF8018481811102C0EF1801C0FB
:1005C000E12CC80129836A837B830E94450229812B
:1005D000822F0E942302D82E6A81A62E7B81B72EFD
:1005E000F60EFA1431F0F50181915F010E942302A9
:1005F000F8CFEE2029F080E00E942302EA94F9CFA0
:10060000C8010E9448028D2D0F900F900F90DF912E
:10061000CF911F910F91FF90EF90DF90BF90AF901F
:100620000895EF92FF921F93CF93DF931F92CDB760
:10063000DEB77C0169830E9445026981862F0E9492
:100640002302182FC7010E944802812F0F90DF91CB
:10065000CF911F91FF90EF90089562EE0C941103DB
:1006600061EE0C9411036FEF0C941103FC01608395
:100670004183128280E28383148285E0828715821F
:100680000895462F603808F04FE765E00C94A20209
:10069000CF93DF93EC0160E00E943E028B859C8546
:1006A0000E9489076DE1CE010E944B0281FF07C0C5
:1006B0008B859C850E948907CE010E94300360E0F3
:1006C000CE010E944B02482F4E7F60E0CE010E9477
:1006D000A20262E0CE010E944B02E8E6F0E0E49163
:1006E00021E030E001C0220FEA95EAF7822B482F83
:1006F00062E0CE01DF91CF910C94A202CF93DF9301
:10070000EC0160E00E943E0260E0CE010E944B02DC
:10071000482F4D7F60E0CE01DF91CF910C94A20273
:10072000CF93DF93EC0160E00E944B0281FD12C089
:1007300060E0CE010E944B02482F426060E0CE0193
:100740000E94A20265E070E080E090E0DF91CF912E
:100750000C946107DF91CF9108950F93CF93DF93AE
:10076000EC01222311F020EB01C020EACE010E940F
:10077000C602002339F061E0CE01DF91CF910F91E5
:100780000C943E02DF91CF910F9108950F93CF9378
:10079000DF93EC0101E00E94AD03CE010E94330320
:1007A0008073D9F360E0CE010E943E0240E767E02B
:1007B000CE010E94A20284FF05C0CE010E94300338
:1007C00080E001C081E0DF91CF910F91089520E09A
:1007D0000C94C603EF92FF920F931F93CF93DF9376
:1007E000CDB7DEB728970FB6F894DEBF0FBECDBFEA
:1007F0007C0109831A832B833C834D835E836F8343
:100800007887FC012285AE014F5F5F4F6AE00E944E
:100810006B02F7012285AE014F5F5F4F60E1C701B8
:100820000E946B02F701438161E1C7010E94A202AD
:1008300028960FB6F894DEBF0FBECDBFDF91CF91E3
:100840001F910F91FF90EF900895CF93DF93EC01EC
:100850000E94450280E50E94230283E70E94230252
:10086000CE01DF91CF910C944802CF93DF93EC013E
:100870006DE10E944B02482F44606DE1CE010E9461
:10088000A2026CE1CE010E944B02482F4F636CE143
:10089000CE010E94A20281E08C83DF91CF91089566
:1008A000662311F04FE301C040E061E00C94A20226
:1008B0001F93CF93DF93EC01162F66E00E944B024B
:1008C000887F143020F4612F660F6F5F01C067E0EE
:1008D000462F482B66E0CE01DF91CF911F910C94FB
:1008E000A202EF92FF920F931F93CF93DF931F9279
:1008F000CDB7DEB77C018B0166E00E944B02582F1A
:10090000577D0230110531F450620BE910E020E010
:1009100030E00DC00130110529F005E510E020E0C0
:1009200030E005C0586001E410E020E030E0F7015D
:100930000387148725873687452F66E0C7015983CB
:100940000E94A20266E0C7010E944B0291E0598119
:10095000851390E0892F0F90DF91CF911F910F9118
:10096000FF90EF900895CF93DF93EC0188819981F8
:10097000891719F061E00E941608898198819817FB
:1009800019F061E00E9416080E94ED0160E0CE01BE
:100990000E943E0261E0CE010E942A0265E070E002
:1009A00080E090E00E9461074CE060E0CE010E9490
:1009B000A2024FE564E0CE010E94A20262E070E074
:1009C000CE010E947104882311F081E08A8360E0E7
:1009D00070E0CE010E947104CE010E94250440E027
:1009E0006DE1CE010E94A20240E06CE1CE010E94C6
:1009F000A20240E767E0CE010E94A2026CE4CE01B1
:100A00000E944103CE010E942D03CE010E943003BB
:100A1000CE010E94900360E0CE010E944B02482F5D
:100A20004E7F60E0CE010E94A20280E0DF91CF9174
:100A300008950F931F93CF93DF93EC018B0160E038
:100A40000E944B02482F437F0115110531F0013000
:100A5000110511F4486001C04C6060E0CE01DF91E7
:100A6000CF911F910F910C94A20220E1629FB001DF
:100A700011244F70462B64E00C94A20241155105DD
:100A800029F480917A008F7780937A006A3071051B
:100A9000B1F063FF02C088E201C088E06770682B94
:100AA00088E190E00FB6F894A895809360000FBE9F
:100AB000609360008091600080648093600083B7E1
:100AC000817F846083BF232B51F4F89483B78160C6
:100AD00083BF85B7806685BF8F7D85BF04C0F894CE
:100AE00083B7816083BF7894889583B78E7F83BFF7
:100AF0007894452B29F480917A00806880937A005D
:100B000008951F920F920FB60F9211248F9388E1D0
:100B10000FB6F89480936000109260000FBE8F9122
:100B20000F900FBE0F901F901895CF93DF93EC019D
:100B30000E943207685B7B40810991096D877E873F
:100B40008F87988BDF91CF9108952F923F924F928C
:100B50005F926F927F928F929F92AF92BF92CF924D
:100B6000DF92EF92FF920F931F93CF93DF931F9229
:100B7000CDB7DEB71C010E943207F101858496844F
:100B8000A784B0882B013C01481859086A087B08E3
:100B9000218532852130310539F447EE842E43E03A
:100BA000942EA12CB12C06C03FEC832E37E0932E5F
:100BB000A12CB12C481459046A047B0408F4BCC06D
:100BC000F101658776878787908B80E090E0A0ECC5
:100BD000BFE780839183A283B38384839583A683B5
:100BE000B78360E080850E944F0861E0F101808555
:100BF0000E941608F10181859285019739F462E11E
:100C000070E080E090E00E94610704C080E293E021
:100C10000E94890760E0F10180850E94160861E06A
:100C2000F10180850E944F082DEF922E0E943E0711
:100C3000762EF92DF1708F2EAF2EBB24A7FCB09429
:100C40000E943E0767196B3518F081E090E02FC0D5
:100C5000F101808569830E94850869818A159B0559
:100C600079F397FC07C0882029F0000F111F6F311E
:100C700008F00160FFE19F1639F08FE3981205C07C
:100C8000780100E010E001C068019394E0E59E1255
:100C9000CDCF6D2D7727AF2CB12C8E2D8C0D860FDF
:100CA0008F0D90E08017910731F082E090E0F10124
:100CB0009487838741C0F10181859285019779F4FA
:100CC00080E090E00E94F008F101648375838683E0
:100CD0009783B50180E090E00E94F00825C0B6013E
:100CE00080E090E00E94F0082DEC3CEC4CEC5DE3E1
:100CF0000E945609F1016483758386839783C70137
:100D000097FF05C09F77EE24FF24E81AF90AB70180
:100D1000882777FD8095982F0E94F2082DEC3CECF7
:100D20004CEC5DE30E945609F1016083718382837C
:100D30009383F101148613860F90DF91CF911F9159
:100D40000F91FF90EF90DF90CF90BF90AF909F906A
:100D50008F907F906F905F904F903F902F9008956D
:100D60000F931F93CF93DF93EC018A0168875A8713
:100D700049870E949505012B71F482E090E09A87E3
:100D80008987CE010E94A5058B859C8581309105C0
:100D900011F49A878987DF91CF911F910F91089560
:100DA000CF93DF93EC010E94A5056C817D818E813C
:100DB0009F81DF91CF910895CF93DF93EC010E9443
:100DC000A505688179818A819B81DF91CF91089502
:100DD0001F920F920FB60F9211242F933F938F9370
:100DE0009F93AF93BF938091260190912701A0918B
:100DF0002801B09129013091250126E0230F2D37DC
:100E000020F40296A11DB11D05C029E8230F039609
:100E1000A11DB11D209325018093260190932701E8
:100E2000A0932801B093290180912A0190912B0170
:100E3000A0912C01B0912D010196A11DB11D8093AF
:100E40002A0190932B01A0932C01B0932D01BF9107
:100E5000AF919F918F913F912F910F900FBE0F9067
:100E60001F9018952FB7F894609126017091270173
:100E700080912801909129012FBF08953FB7F894E0
:100E800080912A0190912B01A0912C01B0912D010C
:100E900026B5A89B05C02F3F19F00196A11DB11DD5
:100EA0003FBF6627782F892F9A2F620F711D811DF2
:100EB000911D43E0660F771F881F991F4A95D1F750
:100EC0000895CF92DF92EF92FF92CF93DF936B0161
:100ED0007C010E943E07EB01C114D104E104F1043E
:100EE00089F00E94BE080E943E076C1B7D0B683E85
:100EF000734090F381E0C81AD108E108F108C851A5
:100F0000DC4FEACFDF91CF91FF90EF90DF90CF9051
:100F100008958330910528F0880F991F0497019751
:100F2000F1F70895789484B5826084BD84B58160BA
:100F300084BD85B5826085BD85B5816085BDEEE6E1
:100F4000F0E0808181608083E1E8F0E010828081C0
:100F500082608083808181608083E0E8F0E080812E
:100F600081608083E1EBF0E0808184608083E0EB4E
:100F7000F0E0808181608083EAE7F0E08081846036
:100F8000808380818260808380818E7F8083808166
:100F9000806880831092C1000895809300010895B5
:100FA0008E3008F08E5087702091000190E4299FC8
:100FB00090011124822B80937C0080917A008064C0
:100FC00080937A0080917A0086FDFCCF8091780032
:100FD0002091790090E0922B0895833081F028F4DD
:100FE000813099F08230A1F008958730A9F08830DF
:100FF000B9F08430D1F4809180008F7D03C080915E
:1010000080008F7780938000089584B58F7702C029
:1010100084B58F7D84BD08958091B0008F7703C023
:101020008091B0008F7D8093B0000895CF93DF93BF
:1010300090E0FC01EE57FF4F2491FC01EA56FF4F70
:101040008491882349F190E0880F991FFC01E254B4
:10105000FF4FA591B4918C549F4FFC01C591D49141
:101060009FB7611108C0F8948C91209582238C93CE
:10107000888182230AC0623051F4F8948C91322F17
:10108000309583238C938881822B888304C0F894C5
:101090008C91822B8C939FBFDF91CF9108950F93FA
:1010A0001F93CF93DF931F92CDB7DEB7282F30E089
:1010B000F901E259FF4F8491F901EE57FF4F149166
:1010C000F901EA56FF4F04910023C9F0882321F06B
:1010D00069830E94ED076981E02FF0E0EE0FFF1FAA
:1010E000EC54FF4FA591B4919FB7F8948C91611186
:1010F00003C01095812301C0812B8C939FBF0F905B
:10110000DF91CF911F910F910895CF93DF93282FF7
:1011100030E0F901E259FF4F8491F901EE57FF4F9A
:10112000D491F901EA56FF4FC491CC2391F081117B
:101130000E94ED07EC2FF0E0EE0FFF1FE655FF4F8A
:10114000A591B4912C912D2381E090E021F480E0D1
:1011500002C080E090E0DF91CF91089508950E9451
:1011600092070E94AE080E94F200C0E0D0E00E9408
:10117000C1012097E1F30E940000F9CF089504D047
:101180006894B1118DC0089570D088F09F5790F089
:10119000B92F9927B751A0F0D1F0660F771F881F9C
:1011A000991F1AF0BA95C9F712C0B13081F077D003
:1011B000B1E0089574C0672F782F8827B85F39F0A1
:1011C000B93FCCF3869577956795B395D9F73EF4FB
:1011D00090958095709561957F4F8F4F9F4F0895A3
:1011E000E89409C097FB3EF49095809570956195C1
:1011F0007F4F8F4F9F4F9923A9F0F92F96E9BB2777
:101200009395F695879577956795B795F111F8CFF2
:10121000FAF4BB0F11F460FF1BC06F5F7F4F8F4F5D
:101220009F4F16C0882311F096E911C0772321F053
:101230009EE8872F762F05C0662371F096E8862FEB
:1012400070E060E02AF09A95660F771F881FDAF742
:10125000880F9695879597F9089557FD9058440FF4
:10126000551F59F05F3F71F04795880F97FB991F05
:1012700061F09F3F79F087950895121613061406C2
:10128000551FF2CF4695F1DF08C01616170618064F
:10129000991FF1CF86957105610508940895E8942A
:1012A000BB2766277727CB0197F908950BD078C025
:1012B00069D028F06ED018F0952309F05AC05FC0AD
:1012C0001124EECFCADFA0F3959FD1F3950F50E024
:1012D000551F629FF001729FBB27F00DB11D639FE8
:1012E000AA27F00DB11DAA1F649F6627B00DA11D8E
:1012F000661F829F2227B00DA11D621F739FB00D34
:10130000A11D621F839FA00D611D221F749F3327A3
:10131000A00D611D231F849F600D211D822F762F3C
:101320006A2F11249F5750408AF0E1F088234AF039
:10133000EE0FFF1FBB1F661F771F881F9150504085
:10134000A9F79E3F510570F014C0AACF5F3FECF3A0
:10135000983EDCF3869577956795B795F795E79571
:101360009F5FC1F7FE2B880F911D9695879597F982
:10137000089597F99F6780E870E060E008959FEF17
:1013800080EC089500240A9416161706180609061C
:10139000089500240A9412161306140605060895EB
:1013A000092E0394000C11F4882352F0BB0F40F473
:1013B000BF2B11F460FF04C06F5F7F4F8F4F9F4FB3
:1013C0000895EE0FFF1F0590F491E02D0994F89415
:0213D000FFCF4D
:0213D200010018
:00000001FF
