:100000000C9460000C9488000C9488000C94880078
:100010000C9488000C9488000C943E050C94880085
:100020000C9488000C9488000C9488000C94880030
:100030000C9488000C9488000C9488000C94880020
:100040000C9452050C9488000C9488000C94880041
:100050000C9488000C9488000C9488000C94880000
:100060000C9488000C948800000102030405000031
:100070000008000201000003040700000000000067
:100080000000010204081020408001020408102032
:1000900001020408102004040404040404040202FD
:1000A0000202020203030303030300000000250011
:1000B00028002B0000000000240027002A00A401D3
:1000C00011241FBECFEFD8E0DEBFCDBF11E0A0E00E
:1000D000B1E0E2E3F0E102C005900D92A230B10779
:1000E000D9F721E0A2E0B1E001C01D92AD31B20725
:1000F000E1F710E0C0ECD0E004C02297FE010E94BE
:100100001308CE3BD107C9F70E94E4060C941708E8
:100110000C9400000F931F9362E370E080E090E086
:100120000E94BF0582E091E00E94700464E670E0E6
:1001300080E090E00E94BF0582E091E00E944D03C4
:1001400062E370E080E090E00E94BF056DE682E02F
:1001500091E00E94FE024FE06FE082E091E00E9499
:10016000F20460E070E082E091E00E942E0461E021
:1001700082E091E00E94150462E070E082E091E08C
:100180000E94D60482E091E00E94F20361E082E0E6
:1001900091E00E940D0482E091E00E94050302E0DC
:1001A0001FEE2EEB3DEA4EED50E060E070E082E0A5
:1001B00091E00E94A70362E370E080E090E00E947B
:1001C000BF0582E091E00E943B0362E370E080E0C3
:1001D00090E01F910F910C94BF0514BE88E10FB6FB
:1001E000F89480936000109260000FBE60ED77E09D
:1001F00080E090E00E94BF050E948A0083E00C949A
:100200002B060F931F93CF93DF931F92CDB7DEB7CB
:100210008C01462F62E370E080E090E049830E9409
:10022000BF0582E091E00E944D0362E370E080E050
:1002300090E00E94BF0582E091E00E9405034981A1
:10024000B80182E091E00E94A40362E370E080E0E4
:1002500090E00E94BF0582E091E00E943B0362E3D0
:1002600070E080E090E00F90DF91CF911F910F91AF
:100270000C94BF050F931F93CF93DF93CDB7DEB7D9
:100280002E970FB6F894DEBF0FBECDBF62E370E0CD
:1002900080E090E00E94BF058EE00E942E068EE076
:1002A0000E942E06BC018E010F5F1F4F8EE0F801E9
:1002B00011928A95E9F784E690E098878F838827E2
:1002C00077FD8095982F0E94220728EE3AE64BEAA8
:1002D0005EE30E9486070E94F4067A8369836EE0DB
:1002E000C8010E9401012E960FB6F894DEBF0FBE22
:1002F000CDBFDF91CF911F910F910895CF9329E248
:1003000088E190E00FB6F894A895809360000FBE46
:10031000209360000E943A01A89588E10FB6F894F6
:1003200080936000109260000FBEC8E020E030E0D3
:1003300040E050E069E070E083E191E00E94FB045E
:10034000C150A1F7CF9108954AE069E082E091E0C1
:100350000C94F302CF93CFB7F894809112018111DE
:1003600027C0E0EAF0E08491ECE8F0E09491E82F17
:10037000F0E0EE0FFF1FEC54FF4FA591B4918C916C
:10038000892321F461E08AE00E94AD0661E08AE001
:100390000E9474068CB580618CBD8CB580648CBD68
:1003A00061E08DE00E94740661E08BE00E947406BB
:1003B000809112018F5F80931201CFBFCF9108957A
:1003C0008EBD00000DB407FEFDCF8EB508952CB58F
:1003D0002F7D2CBD2CB5237F2CBD2CB52C7F2CBDA7
:1003E0002DB521602DBDFC0181810E94AD0685E007
:1003F00090E00C94E705FC018081918189130C94B5
:10040000AD06089560E00C94E70161E00C94E7010B
:10041000EF92FF921F93CF93DF931F92CDB7DEB77A
:100420007C0169830E9402026981862F8F710E947C
:10043000E0018FEF0E94E001182FC7010E94050222
:10044000812F0F90DF91CF911F91FF90EF90089532
:10045000CF92DF92EF92FF920F931F93CF93DF9390
:1004600000D01F92CDB7DEB78C01F22E4A835B839A
:1004700069830E9402026981862F8F7180620E94C7
:10048000E001E82E4A81C42E5B81D52EF40EFC14C7
:1004900031F0F60181916F010E94E001F8CFC801AF
:1004A0000E9405028E2D0F900F900F90DF91CF913B
:1004B0001F910F91FF90EF90DF90CF900895EF92F2
:1004C000FF921F93CF93DF9300D0CDB7DEB77C01AF
:1004D0004A8369830E9402026981862F8F7180623C
:1004E0000E94E001182F4A81842F0E94E001C70179
:1004F0000E940502812F0F900F90DF91CF911F91E5
:10050000FF90EF900895AF92BF92DF92EF92FF922B
:100510000F931F93CF93DF9300D01F92CDB7DEB719
:100520008C01FC01E380F42EE41608F4FE2CF801A3
:100530008481811102C0EF1801C0E12CC801298318
:100540006A837B830E9402022981822F0E94E0013C
:10055000D82E6A81A62E7B81B72EF60EFA1431F0C2
:10056000F50181915F010E94E001F8CFEE2029F0B2
:1005700080E00E94E001EA94F9CFC8010E940502E0
:100580008D2D0F900F900F90DF91CF911F910F91B4
:10059000FF90EF90DF90BF90AF900895EF92FF92A1
:1005A0001F93CF93DF931F92CDB7DEB77C01698392
:1005B0000E9402026981862F0E94E001182FC70164
:1005C0000E940502812F0F90DF91CF911F91FF9024
:1005D000EF90089562EE0C94CE0261EE0C94CE0280
:1005E0006FEF0C94CE02FC0160834183128280E2A3
:1005F0008383148285E0828715820895462F6038B0
:1006000008F04FE765E00C945F02CF93DF93EC01B5
:1006100060E00E94FB018B859C850E94E7056DE1EF
:10062000CE010E94080281FF07C08B859C850E9435
:10063000E705CE010E94ED0260E0CE010E940802B3
:10064000482F4E7F60E0CE010E945F0262E0CE0143
:100650000E940802E8E6F0E0E49121E030E001C009
:10066000220FEA95EAF7822B482F62E0CE01DF9154
:10067000CF910C945F02CF93DF93EC0160E00E9476
:10068000FB0160E0CE010E940802482F4D7F60E030
:10069000CE01DF91CF910C945F02CF93DF93EC01F9
:1006A00060E00E94080281FD12C060E0CE010E945D
:1006B0000802482F426060E0CE010E945F0265E0C0
:1006C00070E080E090E0DF91CF910C94BF05DF9166
:1006D000CF9108950F93CF93DF93EC01222311F074
:1006E00020EB01C020EACE010E948302002339F0F2
:1006F00061E0CE01DF91CF910F910C94FB01DF916E
:10070000CF910F9108950F93CF93DF93EC0101E008
:100710000E946A03CE010E94F0028073D9F360E068
:10072000CE010E94FB0140E767E0CE010E945F021C
:1007300084FF05C0CE010E94ED0280E001C081E08F
:10074000DF91CF910F91089520E00C948303EF92F5
:10075000FF920F931F93CF93DF93CDB7DEB7289708
:100760000FB6F894DEBF0FBECDBF7C0109831A839C
:100770002B833C834D835E836F837887FC012285C6
:10078000AE014F5F5F4F6AE00E942802F7012285A9
:10079000AE014F5F5F4F60E1C7010E942802F70181
:1007A000438161E1C7010E945F0228960FB6F89469
:1007B000DEBF0FBECDBFDF91CF911F910F91FF9094
:1007C000EF900895CF93DF93EC010E94020280E541
:1007D0000E94E00183E70E94E001CE01DF91CF910A
:1007E0000C940502CF93DF93EC016DE10E940802A7
:1007F000482F44606DE1CE010E945F026CE1CE01A2
:100800000E940802482F4F636CE1CE010E945F02F4
:1008100081E08C83DF91CF910895662311F04FE33F
:1008200001C040E061E00C945F021F93CF93DF931F
:10083000EC01162F66E00E940802887F143020F435
:10084000612F660F6F5F01C067E0462F482B66E09F
:10085000CE01DF91CF911F910C945F02EF92FF9236
:100860000F931F93CF93DF931F92CDB7DEB77C0119
:100870008B0166E00E940802582F577D0230110557
:1008800031F450620BE910E020E030E00DC001309F
:10089000110529F005E510E020E030E005C05860C2
:1008A00001E410E020E030E0F7010387148725879A
:1008B0003687452F66E0C70159830E945F0266E0D4
:1008C000C7010E94080291E05981851390E0892FA9
:1008D0000F90DF91CF911F910F91FF90EF900895AE
:1008E000CF93DF93EC0188819981891719F061E03A
:1008F0000E94740689819881981719F061E00E941E
:1009000074060E94AA0160E0CE010E94FB0161E032
:10091000CE010E94E70165E070E080E090E00E9477
:10092000BF054CE060E0CE010E945F024FE564E04D
:10093000CE010E945F0262E070E0CE010E942E04B0
:10094000882311F081E08A8360E070E0CE010E948C
:100950002E04CE010E94E20340E06DE1CE010E9430
:100960005F0240E06CE1CE010E945F0240E767E079
:10097000CE010E945F026CE4CE010E94FE02CE0115
:100980000E94EA02CE010E94ED02CE010E944D03B8
:1009900060E0CE010E940802482F4E7F60E0CE0149
:1009A0000E945F0280E0DF91CF9108950F931F9323
:1009B000CF93DF93EC018B0160E00E940802482F87
:1009C000437F0115110531F00130110511F4486024
:1009D00001C04C6060E0CE01DF91CF911F910F917B
:1009E0000C945F0220E1629FB00111244F70462BEE
:1009F00064E00C945F024115510529F480917A005E
:100A00008F7780937A006A307105B1F063FF02C07E
:100A100088E201C088E06770682B88E190E00FB63B
:100A2000F894A895809360000FBE60936000809159
:100A3000600080648093600083B7817F846083BF9F
:100A4000232B51F4F89483B7816083BF85B7806608
:100A500085BF8F7D85BF04C0F89483B7816083BF55
:100A60007894889583B78E7F83BF7894452B29F43B
:100A700080917A00806880937A0008951F920F9287
:100A80000FB60F9211248F9388E10FB6F8948093DC
:100A90006000109260000FBE8F910F900FBE0F90FC
:100AA0001F9018951F920F920FB60F9211242F933B
:100AB0003F938F939F93AF93BF9380911501909134
:100AC0001601A0911701B09118013091140126E090
:100AD000230F2D3720F40296A11DB11D05C029E872
:100AE000230F0396A11DB11D2093140180931501BE
:100AF00090931601A0931701B093180180911901EA
:100B000090911A01A0911B01B0911C010196A11DA9
:100B1000B11D8093190190931A01A0931B01B0930A
:100B20001C01BF91AF919F918F913F912F910F9099
:100B30000FBE0F901F9018953FB7F8948091190140
:100B400090911A01A0911B01B0911C0126B5A89BA0
:100B500005C02F3F19F00196A11DB11D3FBF6627AB
:100B6000782F892F9A2F620F711D811D911D43E0EF
:100B7000660F771F881F991F4A95D1F70895CF9266
:100B8000DF92EF92FF92CF93DF936B017C010E9483
:100B90009C05EB01C114D104E104F10489F00E9429
:100BA000F3060E949C056C1B7D0B683E734090F31E
:100BB00081E0C81AD108E108F108C851DC4FEACF3A
:100BC000DF91CF91FF90EF90DF90CF900895833029
:100BD000910528F0880F991F04970197F1F7089560
:100BE000789484B5826084BD84B5816084BD85B508
:100BF000826085BD85B5816085BDEEE6F0E08081CF
:100C000081608083E1E8F0E01082808182608083EF
:100C1000808181608083E0E8F0E080818160808372
:100C2000E1EBF0E0808184608083E0EBF0E08081A4
:100C300081608083EAE7F0E0808184608083808146
:100C40008260808380818E7F8083808180688083C2
:100C50001092C10008958093000108958E3008F02D
:100C60008E5087702091000190E4299F90011124FB
:100C7000822B80937C0080917A00806480937A003C
:100C800080917A0086FDFCCF8091780020917900D8
:100C900090E0922B0895833081F028F4813099F010
:100CA0008230A1F008958730A9F08830B9F08430FF
:100CB000D1F4809180008F7D03C0809180008F7778
:100CC00080938000089584B58F7702C084B58F7DAE
:100CD00084BD08958091B0008F7703C08091B000EB
:100CE0008F7D8093B0000895CF93DF9390E0FC0157
:100CF000EE57FF4F2491FC01EA56FF4F8491882361
:100D000049F190E0880F991FFC01EC54FF4FA59129
:100D1000B49186559F4FFC01C591D4919FB7611145
:100D200008C0F8948C91209582238C93888182232B
:100D30000AC0623051F4F8948C91322F309583239D
:100D40008C938881822B888304C0F8948C91822BA9
:100D50008C939FBFDF91CF9108950F931F93CF93F3
:100D6000DF931F92CDB7DEB7282F30E0F901E259AB
:100D7000FF4F8491F901EE57FF4F1491F901EA56A4
:100D8000FF4F04910023C9F0882321F069830E945A
:100D90004B066981E02FF0E0EE0FFF1FE655FF4F95
:100DA000A591B4919FB7F8948C91611103C01095EF
:100DB000812301C0812B8C939FBF0F90DF91CF9136
:100DC0001F910F91089508950E94F0050E94E30677
:100DD0000E94ED00C0E0D0E00E947E012097E1F388
:100DE0000E940000F9CF089570D088F09F5790F0CE
:100DF000B92F9927B751A0F0D1F0660F771F881F40
:100E0000991F1AF0BA95C9F712C0B13081F077D0A6
:100E1000B1E0089574C0672F782F8827B85F39F044
:100E2000B93FCCF3869577956795B395D9F73EF49E
:100E300090958095709561957F4F8F4F9F4F089546
:100E4000E89409C097FB3EF4909580957095619564
:100E50007F4F8F4F9F4F9923A9F0F92F96E9BB271A
:100E60009395F695879577956795B795F111F8CF96
:100E7000FAF4BB0F11F460FF1BC06F5F7F4F8F4F01
:100E80009F4F16C0882311F096E911C0772321F0F7
:100E90009EE8872F762F05C0662371F096E8862F8F
:100EA00070E060E02AF09A95660F771F881FDAF7E6
:100EB000880F9695879597F9089557FD9058440F98
:100EC000551F59F05F3F71F04795880F97FB991FA9
:100ED00061F09F3F79F08795089512161306140666
:100EE000551FF2CF4695F1DF08C0161617061806F3
:100EF000991FF1CF86957105610508940895E894CE
:100F0000BB2766277727CB0197F908950BD078C0C8
:100F100069D028F06ED018F0952309F05AC05FC050
:100F20001124EECFCADFA0F3959FD1F3950F50E0C7
:100F3000551F629FF001729FBB27F00DB11D639F8B
:100F4000AA27F00DB11DAA1F649F6627B00DA11D31
:100F5000661F829F2227B00DA11D621F739FB00DD7
:100F6000A11D621F839FA00D611D221F749F332747
:100F7000A00D611D231F849F600D211D822F762FE0
:100F80006A2F11249F5750408AF0E1F088234AF0DD
:100F9000EE0FFF1FBB1F661F771F881F9150504029
:100FA000A9F79E3F510570F014C0AACF5F3FECF344
:100FB000983EDCF3869577956795B795F795E79515
:100FC0009F5FC1F7FE2B880F911D9695879597F926
:100FD000089597F99F6780E870E060E008959FEFBB
:100FE00080EC089500240A941616170618060906C0
:100FF000089500240A94121613061406050608958F
:10100000092E0394000C11F4882352F0BB0F40F416
:10101000BF2B11F460FF04C06F5F7F4F8F4F9F4F56
:101020000895EE0FFF1F0590F491E02D0994F894B8
:02103000FFCFF0
:021032000100BB
:00000001FF
