:100000000C945D000C9485000C9485000C94850084
:100010000C9485000C9485000C9485000C9485004C
:100020000C9485000C9485000C9485000C9485003C
:100030000C9485000C9485000C9485000C9485002C
:100040000C94E6000C9485000C948D030C94BF0373
:100050000C9485000C9485000C9485000C9485000C
:100060000C9485000C94850000000008000201003B
:100070000003040700000000000000000102040863
:100080001020408001020408102001020408102002
:10009000040404040404040402020202020203032E
:1000A0000303030300000000250028002B000000CC
:1000B0000000240027002A00EF0311241FBECFEF09
:1000C000D8E0DEBFCDBF11E0A0E0B1E0E6E0FBE0AC
:1000D00002C005900D92A433B107D9F721E0A4E343
:1000E000B1E001C01D92AC3DB207E1F710E0CAEBF0
:1000F000D0E004C02297FE010E947D05C83BD107D5
:10010000C9F70E9449050C9481050C94000014BEA7
:1001100088E10FB6F89480936000109260000FBEE3
:1001200026E040E855E260E070E08FE391E00E9455
:10013000310364E670E080E090E00E94530160E0EB
:1001400071E08FE391E00E947B0429E288E190E076
:100150000FB6F894A895809360000FBE20936000BE
:1001600064E670E080E090E00E945301A89561E0B1
:1001700082E00C94DF0164EF71E080E090E00E9487
:10018000530160E082E00E94180264EF71E080E0B9
:1001900090E00E94530161E082E00E941802809189
:1001A000340190913501019690933501809334018B
:1001B0008FE391E00E94AA026091340170913501B1
:1001C0004AE050E08FE391E00C9430051F920F92CB
:1001D0000FB60F9211242F933F938F939F93AF935A
:1001E000BF938091370190913801A0913901B0916E
:1001F0003A013091360126E0230F2D3720F4029684
:10020000A11DB11D05C029E8230F0396A11DB11D35
:10021000209336018093370190933801A0933901E0
:10022000B0933A0180913B0190913C01A0913D0136
:10023000B0913E010196A11DB11D80933B019093A9
:100240003C01A0933D01B0933E01BF91AF919F91BE
:100250008F913F912F910F900FBE0F901F90189587
:100260003FB7F89480913B0190913C01A0913D01F2
:10027000B0913E0126B5A89B05C02F3F19F001960D
:10028000A11DB11D3FBF6627782F892F9A2F620FBE
:10029000711D811D911D43E0660F771F881F991FF7
:1002A0004A95D1F70895CF92DF92EF92FF92CF93C4
:1002B000DF936B017C010E943001EB01C114D1047A
:1002C000E104F10489F00E9458050E9430016C1B82
:1002D0007D0B683E734090F381E0C81AD108E108B5
:1002E000F108C851DC4FEACFDF91CF91FF90EF903A
:1002F000DF90CF900895789484B5826084BD84B5F2
:10030000816084BD85B5826085BD85B5816085BD10
:10031000EEE6F0E0808181608083E1E8F0E0108229
:10032000808182608083808181608083E0E8F0E06A
:10033000808181608083E1EBF0E080818460808354
:10034000E0EBF0E0808181608083EAE7F0E080818B
:100350008460808380818260808380818E7F8083BF
:100360008081806880831092C1000895833081F07D
:1003700028F4813099F08230A1F008958730A9F0F7
:100380008830B9F08430D1F4809180008F7D03C033
:10039000809180008F7780938000089584B58F7757
:1003A00002C084B58F7D84BD08958091B0008F77A1
:1003B00003C08091B0008F7D8093B0000895CF93EB
:1003C000DF9390E0FC01E458FF4F2491FC01E057DB
:1003D000FF4F8491882349F190E0880F991FFC0119
:1003E000E255FF4FA591B4918C559F4FFC01C591EB
:1003F000D4919FB7611108C0F8948C912095822305
:100400008C93888182230AC0623051F4F8948C91D5
:10041000322F309583238C938881822B888304C06C
:10042000F8948C91822B8C939FBFDF91CF9108958C
:100430000F931F93CF93DF931F92CDB7DEB7282F73
:1004400030E0F901E859FF4F8491F901E458FF4F7A
:100450001491F901E057FF4F04910023C9F088235C
:1004600021F069830E94B6016981E02FF0E0EE0F70
:10047000FF1FEC55FF4FA591B4919FB7F8948C9155
:10048000611103C01095812301C0812B8C939FBF04
:100490000F90DF91CF911F910F910895FC01818DF5
:1004A000228D90E0805C9F4F821B91098F7399276A
:1004B0000895FC01918D828D981731F0828DE80F9F
:1004C000F11D858D90E008958FEF9FEF0895FC0159
:1004D000918D828D981761F0828DDF01A80FB11D7B
:1004E0005D968C91928D9F5F9F73928F90E008959F
:1004F0008FEF9FEF089585EE93E0892B49F080E020
:1005000090E0892B29F00E94E50381110C940000F2
:100510000895FC01848DDF01A80FB11DA35ABF4FC0
:100520002C91848D90E001968F739927848FA689F2
:10053000B7892C93A089B1898C9180648C93938D19
:10054000848D981306C00288F389E02D80818F7D09
:1005500080830895CF93DF93EC01888D8823C9F0C1
:10056000EA89FB89808185FD05C0A889B9898C91BC
:1005700086FD0FC00FB607FCF5CF808185FFF2CF57
:10058000A889B9898C9185FFEDCFCE010E9489029F
:10059000E7CFDF91CF910895CF92DF92FF920F9333
:1005A0001F93CF93DF931F92CDB7DEB76C0181E02D
:1005B000D60158968C9358975B969C915B975C9666
:1005C0008C915C97981307C05096ED91FC915197D0
:1005D000808185FD2EC0F601038D10E00F5F1F4F57
:1005E0000F731127F02EF601848DF81211C00FB68B
:1005F00007FCF9CFD6015096ED91FC91519780817F
:1006000085FFF1CFC60169830E9489026981EBCF22
:10061000838DE80FF11DE35AFF4F6083D6015B968F
:100620000C935B975296ED91FC9153978081806279
:100630000CC0D6015696ED91FC9157976083509669
:10064000ED91FC91519780818064808381E090E0FE
:100650000F90DF91CF911F910F91FF90DF90CF907E
:100660000895BF92CF92DF92EF92FF92CF93DF93E4
:10067000EC016A017B01B22E60E874E88EE190E043
:10068000A70196010E9459052150310941095109DC
:100690005695479537952795E889F98982E08083B3
:1006A000211580E1380798F0E889F989108260E423
:1006B00072E48FE090E0A70196010E945905215055
:1006C0003109410951095695479537952795EC858C
:1006D000FD853083EE85FF852083188EEC89FD89AA
:1006E000B082EA89FB89808180618083EA89FB8905
:1006F000808188608083EA89FB898081806880832B
:10070000EA89FB8980818F7D8083DF91CF91FF9083
:10071000EF90DF90CF90BF9008951F920F920FB689
:100720000F9211242F938F939F93EF93FF93E09158
:100730004F01F09150018081E0915501F0915601F7
:1007400082FD12C09081809158018F5F8F7320913C
:100750005901821751F0E0915801F0E0E15CFE4F41
:10076000958F8093580101C08081FF91EF919F91F7
:100770008F912F910F900FBE0F901F9018951F9281
:100780000F920FB60F9211242F933F934F935F93C5
:100790006F937F938F939F93AF93BF93EF93FF9349
:1007A0008FE391E00E948902FF91EF91BF91AF9199
:1007B0009F918F917F916F915F914F913F912F9179
:1007C0000F900FBE0F901F9018958FE391E00E943D
:1007D0004E0221E0892B09F420E0822F0895109227
:1007E00042011092410188EE93E0A0E0B0E08093D6
:1007F000430190934401A0934501B093460186E1E3
:1008000091E09093400180933F0185EC90E09093BC
:100810004C0180934B0184EC90E090934E018093C7
:100820004D0180EC90E09093500180934F0181EC5A
:1008300090E0909352018093510182EC90E090936C
:1008400054018093530186EC90E09093560180937D
:100850005501109258011092590110925A011092AC
:100860005B010895CF92DF92EF92FF920F931F9357
:10087000CF93DF937C016A01EB0100E010E00C15DF
:100880001D0571F06991D701ED91FC910190F08106
:10089000E02DC7010995892B19F00F5F1F4FEFCF8E
:1008A000C801DF91CF911F910F91FF90EF90DF90E2
:1008B000CF9008956115710581F0DB010D90002046
:1008C000E9F7AD0141505109461B570BDC01ED9191
:1008D000FC910280F381E02D099480E090E008957E
:1008E000DC01ED91FC910190F081E02D099462E230
:1008F00071E00C945A040F931F93CF93DF93EC0194
:100900000E945A048C01CE010E947704800F911F2F
:10091000DF91CF911F910F9108958F929F92AF9287
:10092000BF92CF92DF92EF92FF920F931F93CF93DC
:10093000DF93CDB7DEB7A1970FB6F894DEBF0FBE39
:10094000CDBF7C01C42EE52FCB01D22E19A221E010
:100950002D1510F02AE0D22E8E010F5D1F4F8D2C29
:10096000912CA12CB12C6C2D7E2FA50194010E94FD
:1009700059058C2DD29E80191124015011098A30FD
:1009800014F4805D01C0895CF80180832115310574
:100990004105510521F0C22EE32FCA01E4CFB80171
:1009A000C7010E945A04A1960FB6F894DEBF0FBE8D
:1009B000CDBFDF91CF911F910F91FF90EF90DF900E
:1009C000CF90BF90AF909F908F900895CF92DF927D
:1009D000EF92FF920F931F93CF93DF93EC016A0185
:1009E0007B012115310579F4E881F9810190F081CD
:1009F000E02D642FDF91CF911F910F91FF90EF9029
:100A0000DF90CF9009942A303105E9F477FF1AC0BE
:100A10006DE20E9470048C0144275527BA014C19DD
:100A20005D096E097F092AE0CE010E948D04800FC6
:100A3000911FDF91CF911F910F91FF90EF90DF9069
:100A4000CF9008952AE0B701A601CE01DF91CF91A2
:100A50001F910F91FF90EF90DF90CF900C948D0439
:100A60000F931F93CF93DF93EC019A01AB0166279D
:100A700057FD6095762F0E94E6048C01CE010E94FE
:100A80007704800F911FDF91CF911F910F910895EF
:100A900008950E947B010E9448050E948700CBE7D1
:100AA000D2E00E94BB002097E1F30E947B02F9CFC5
:100AB0000895A1E21A2EAA1BBB1BFD010DC0AA1F9F
:100AC000BB1FEE1FFF1FA217B307E407F50720F0B7
:100AD000A21BB30BE40BF50B661F771F881F991F32
:100AE0001A9469F760957095809590959B01AC017B
:100AF000BD01CF010895EE0FFF1F0590F491E02D89
:060B00000994F894FFCFF8
:100B060053657475702057445420387320696E6994
:100B1600740000000000CC0232044E026702590243
:100B2600AA020D0A006E616E00696E66006F766637
:040B3600002E00008D
:00000001FF
